{
  "transactions": [
    {
      "hash": "0x55e05762267fa893b9997d0c4b90d12cfe1d6e7d399eb2af82bf1726a0099a4e",
      "transactionType": "CALL",
      "contractName": null,
      "contractAddress": "0x4f1803d11795e271626fcd5af4d8b73d12d1f048",
      "function": "flipMood(uint256)",
      "arguments": [
        "0"
      ],
      "transaction": {
        "from": "0xf36b67f4b9f589014dfaf65d2787410868664583",
        "to": "0x4f1803d11795e271626fcd5af4d8b73d12d1f048",
        "gas": "0x106bc",
        "value": "0x0",
        "input": "0xc1a147a00000000000000000000000000000000000000000000000000000000000000000",
        "nonce": "0x9d",
        "chainId": "0xaa36a7"
      },
      "additionalContracts": [],
      "isFixedGasLimit": false
    }
  ],
  "receipts": [
    {
      "status": "0x1",
      "cumulativeGasUsed": "0x840335",
      "logs": [],
      "logsBloom": "0x00000000000000000000000000000000000000000000000000000000000000000000000000000000000000000000000000000000000000000000000000000000000000000000000000000000000000000000000000000000000000000000000000000000000000000000000000000000000000000000000000000000000000000000000000000000000000000000000000000000000000000000000000000000000000000000000000000000000000000000000000000000000000000000000000000000000000000000000000000000000000000000000000000000000000000000000000000000000000000000000000000000000000000000000000000000",
      "type": "0x0",
      "transactionHash": "0x55e05762267fa893b9997d0c4b90d12cfe1d6e7d399eb2af82bf1726a0099a4e",
      "transactionIndex": "0x26",
      "blockHash": "0x1ad6410c812912dfeb2ddfa3fbb2d3cffd774891d758ebf552b7bec2b5656f89",
      "blockNumber": "0x5bab6b",
      "gasUsed": "0xbe38",
      "effectiveGasPrice": "0x50d09328",
      "from": "0xf36b67f4b9f589014dfaf65d2787410868664583",
      "to": "0x4f1803d11795e271626fcd5af4d8b73d12d1f048",
      "contractAddress": null
    }
  ],
  "libraries": [],
  "pending": [],
  "returns": {},
  "timestamp": 1717087994,
  "chain": 11155111,
  "commit": "454f387"
}